{
  "_format": "hh-sol-artifact-1",
  "contractName": "LibraTokenDEX",
  "sourceName": "contracts/LibraDEX.sol",
  "abi": [
    {
      "inputs": [
        {
          "internalType": "address",
          "name": "_currencyContractAddress",
          "type": "address"
        },
        {
          "internalType": "address",
          "name": "_assetContractAddress",
          "type": "address"
        }
      ],
      "stateMutability": "nonpayable",
      "type": "constructor"
    },
    {
      "inputs": [
        {
          "internalType": "uint256",
          "name": "assetId",
          "type": "uint256"
        },
        {
          "internalType": "uint256",
          "name": "currentTimestamp",
          "type": "uint256"
        }
      ],
      "name": "buyAsset",
      "outputs": [],
      "stateMutability": "nonpayable",
      "type": "function"
    },
    {
      "inputs": [
        {
          "internalType": "address",
          "name": "",
          "type": "address"
        },
        {
          "internalType": "address",
          "name": "",
          "type": "address"
        },
        {
          "internalType": "uint256",
          "name": "",
          "type": "uint256"
        },
        {
          "internalType": "bytes",
          "name": "",
          "type": "bytes"
        }
      ],
      "name": "onERC721Received",
      "outputs": [
        {
          "internalType": "bytes4",
          "name": "",
          "type": "bytes4"
        }
      ],
      "stateMutability": "pure",
      "type": "function"
    },
    {
      "inputs": [
        {
          "internalType": "uint256",
          "name": "assetId",
          "type": "uint256"
        },
        {
          "internalType": "uint256",
          "name": "currentTimestamp",
          "type": "uint256"
        }
      ],
      "name": "sell",
      "outputs": [],
      "stateMutability": "nonpayable",
      "type": "function"
    }
  ],
  "bytecode": "0x608060405234801561001057600080fd5b506040516108623803806108628339818101604052810190610032919061011d565b816000806101000a81548173ffffffffffffffffffffffffffffffffffffffff021916908373ffffffffffffffffffffffffffffffffffffffff16021790555080600160006101000a81548173ffffffffffffffffffffffffffffffffffffffff021916908373ffffffffffffffffffffffffffffffffffffffff160217905550505061015d565b600080fd5b600073ffffffffffffffffffffffffffffffffffffffff82169050919050565b60006100ea826100bf565b9050919050565b6100fa816100df565b811461010557600080fd5b50565b600081519050610117816100f1565b92915050565b60008060408385031215610134576101336100ba565b5b600061014285828601610108565b925050602061015385828601610108565b9150509250929050565b6106f68061016c6000396000f3fe608060405234801561001057600080fd5b50600436106100415760003560e01c806309b69e8d14610046578063150b7a0214610062578063d79875eb14610092575b600080fd5b610060600480360381019061005b9190610378565b6100ae565b005b61007c6004803603810190610077919061047b565b61031f565b604051610089919061053e565b60405180910390f35b6100ac60048036038101906100a79190610378565b610334565b005b6000600160009054906101000a900473ffffffffffffffffffffffffffffffffffffffff1673ffffffffffffffffffffffffffffffffffffffff1663487a239584846040518363ffffffff1660e01b815260040161010d929190610568565b602060405180830381865afa15801561012a573d6000803e3d6000fd5b505050506040513d601f19601f8201168201806040525081019061014e91906105a6565b90506000600160009054906101000a900473ffffffffffffffffffffffffffffffffffffffff1673ffffffffffffffffffffffffffffffffffffffff16638da5cb5b6040518163ffffffff1660e01b81526004016020604051808303816000875af11580156101c1573d6000803e3d6000fd5b505050506040513d601f19601f820116820180604052508101906101e591906105e8565b9050600160009054906101000a900473ffffffffffffffffffffffffffffffffffffffff1673ffffffffffffffffffffffffffffffffffffffff166342842e0e8233876040518463ffffffff1660e01b815260040161024693929190610624565b600060405180830381600087803b15801561026057600080fd5b505af1158015610274573d6000803e3d6000fd5b5050505060008054906101000a900473ffffffffffffffffffffffffffffffffffffffff1673ffffffffffffffffffffffffffffffffffffffff166323b872dd3383856040518463ffffffff1660e01b81526004016102d593929190610624565b6020604051808303816000875af11580156102f4573d6000803e3d6000fd5b505050506040513d601f19601f820116820180604052508101906103189190610693565b5050505050565b600063150b7a0260e01b905095945050505050565b5050565b600080fd5b600080fd5b6000819050919050565b61035581610342565b811461036057600080fd5b50565b6000813590506103728161034c565b92915050565b6000806040838503121561038f5761038e610338565b5b600061039d85828601610363565b92505060206103ae85828601610363565b9150509250929050565b600073ffffffffffffffffffffffffffffffffffffffff82169050919050565b60006103e3826103b8565b9050919050565b6103f3816103d8565b81146103fe57600080fd5b50565b600081359050610410816103ea565b92915050565b600080fd5b600080fd5b600080fd5b60008083601f84011261043b5761043a610416565b5b8235905067ffffffffffffffff8111156104585761045761041b565b5b60208301915083600182028301111561047457610473610420565b5b9250929050565b60008060008060006080868803121561049757610496610338565b5b60006104a588828901610401565b95505060206104b688828901610401565b94505060406104c788828901610363565b935050606086013567ffffffffffffffff8111156104e8576104e761033d565b5b6104f488828901610425565b92509250509295509295909350565b60007fffffffff0000000000000000000000000000000000000000000000000000000082169050919050565b61053881610503565b82525050565b6000602082019050610553600083018461052f565b92915050565b61056281610342565b82525050565b600060408201905061057d6000830185610559565b61058a6020830184610559565b9392505050565b6000815190506105a08161034c565b92915050565b6000602082840312156105bc576105bb610338565b5b60006105ca84828501610591565b91505092915050565b6000815190506105e2816103ea565b92915050565b6000602082840312156105fe576105fd610338565b5b600061060c848285016105d3565b91505092915050565b61061e816103d8565b82525050565b60006060820190506106396000830186610615565b6106466020830185610615565b6106536040830184610559565b949350505050565b60008115159050919050565b6106708161065b565b811461067b57600080fd5b50565b60008151905061068d81610667565b92915050565b6000602082840312156106a9576106a8610338565b5b60006106b78482850161067e565b9150509291505056fea26469706673582212200d9ad3700d093d927a0a31ad51f74adf5f6dbf60d7d03da5686eac8dab77a54c64736f6c63430008140033",
  "linkReferences": {},
  "deployedLinkReferences": {}
}