{
  "_format": "hh-sol-artifact-1",
  "contractName": "LibraToken",
  "sourceName": "contracts/LibraToken.sol",
  "abi": [
    {
      "inputs": [],
      "stateMutability": "nonpayable",
      "type": "constructor"
    },
    {
      "inputs": [],
      "name": "ERC721EnumerableForbiddenBatchMint",
      "type": "error"
    },
    {
      "inputs": [
        {
          "internalType": "address",
          "name": "sender",
          "type": "address"
        },
        {
          "internalType": "uint256",
          "name": "tokenId",
          "type": "uint256"
        },
        {
          "internalType": "address",
          "name": "owner",
          "type": "address"
        }
      ],
      "name": "ERC721IncorrectOwner",
      "type": "error"
    },
    {
      "inputs": [
        {
          "internalType": "address",
          "name": "operator",
          "type": "address"
        },
        {
          "internalType": "uint256",
          "name": "tokenId",
          "type": "uint256"
        }
      ],
      "name": "ERC721InsufficientApproval",
      "type": "error"
    },
    {
      "inputs": [
        {
          "internalType": "address",
          "name": "approver",
          "type": "address"
        }
      ],
      "name": "ERC721InvalidApprover",
      "type": "error"
    },
    {
      "inputs": [
        {
          "internalType": "address",
          "name": "operator",
          "type": "address"
        }
      ],
      "name": "ERC721InvalidOperator",
      "type": "error"
    },
    {
      "inputs": [
        {
          "internalType": "address",
          "name": "owner",
          "type": "address"
        }
      ],
      "name": "ERC721InvalidOwner",
      "type": "error"
    },
    {
      "inputs": [
        {
          "internalType": "address",
          "name": "receiver",
          "type": "address"
        }
      ],
      "name": "ERC721InvalidReceiver",
      "type": "error"
    },
    {
      "inputs": [
        {
          "internalType": "address",
          "name": "sender",
          "type": "address"
        }
      ],
      "name": "ERC721InvalidSender",
      "type": "error"
    },
    {
      "inputs": [
        {
          "internalType": "uint256",
          "name": "tokenId",
          "type": "uint256"
        }
      ],
      "name": "ERC721NonexistentToken",
      "type": "error"
    },
    {
      "inputs": [
        {
          "internalType": "address",
          "name": "owner",
          "type": "address"
        },
        {
          "internalType": "uint256",
          "name": "index",
          "type": "uint256"
        }
      ],
      "name": "ERC721OutOfBoundsIndex",
      "type": "error"
    },
    {
      "inputs": [
        {
          "internalType": "address",
          "name": "owner",
          "type": "address"
        }
      ],
      "name": "OwnableInvalidOwner",
      "type": "error"
    },
    {
      "inputs": [
        {
          "internalType": "address",
          "name": "account",
          "type": "address"
        }
      ],
      "name": "OwnableUnauthorizedAccount",
      "type": "error"
    },
    {
      "anonymous": false,
      "inputs": [
        {
          "indexed": true,
          "internalType": "address",
          "name": "owner",
          "type": "address"
        },
        {
          "indexed": true,
          "internalType": "address",
          "name": "approved",
          "type": "address"
        },
        {
          "indexed": true,
          "internalType": "uint256",
          "name": "tokenId",
          "type": "uint256"
        }
      ],
      "name": "Approval",
      "type": "event"
    },
    {
      "anonymous": false,
      "inputs": [
        {
          "indexed": true,
          "internalType": "address",
          "name": "owner",
          "type": "address"
        },
        {
          "indexed": true,
          "internalType": "address",
          "name": "operator",
          "type": "address"
        },
        {
          "indexed": false,
          "internalType": "bool",
          "name": "approved",
          "type": "bool"
        }
      ],
      "name": "ApprovalForAll",
      "type": "event"
    },
    {
      "anonymous": false,
      "inputs": [
        {
          "indexed": false,
          "internalType": "uint256",
          "name": "timestamp",
          "type": "uint256"
        }
      ],
      "name": "MyEvent",
      "type": "event"
    },
    {
      "anonymous": false,
      "inputs": [
        {
          "indexed": true,
          "internalType": "address",
          "name": "previousOwner",
          "type": "address"
        },
        {
          "indexed": true,
          "internalType": "address",
          "name": "newOwner",
          "type": "address"
        }
      ],
      "name": "OwnershipTransferred",
      "type": "event"
    },
    {
      "anonymous": false,
      "inputs": [
        {
          "indexed": true,
          "internalType": "address",
          "name": "from",
          "type": "address"
        },
        {
          "indexed": true,
          "internalType": "address",
          "name": "to",
          "type": "address"
        },
        {
          "indexed": true,
          "internalType": "uint256",
          "name": "tokenId",
          "type": "uint256"
        }
      ],
      "name": "Transfer",
      "type": "event"
    },
    {
      "inputs": [
        {
          "internalType": "address",
          "name": "to",
          "type": "address"
        },
        {
          "internalType": "uint256",
          "name": "tokenId",
          "type": "uint256"
        }
      ],
      "name": "approve",
      "outputs": [],
      "stateMutability": "nonpayable",
      "type": "function"
    },
    {
      "inputs": [
        {
          "internalType": "address",
          "name": "owner",
          "type": "address"
        }
      ],
      "name": "balanceOf",
      "outputs": [
        {
          "internalType": "uint256",
          "name": "",
          "type": "uint256"
        }
      ],
      "stateMutability": "view",
      "type": "function"
    },
    {
      "inputs": [
        {
          "internalType": "uint256",
          "name": "tokenId",
          "type": "uint256"
        }
      ],
      "name": "burn",
      "outputs": [],
      "stateMutability": "nonpayable",
      "type": "function"
    },
    {
      "inputs": [],
      "name": "currentTimestamp",
      "outputs": [
        {
          "internalType": "uint256",
          "name": "",
          "type": "uint256"
        }
      ],
      "stateMutability": "view",
      "type": "function"
    },
    {
      "inputs": [
        {
          "internalType": "uint256",
          "name": "tokenId",
          "type": "uint256"
        }
      ],
      "name": "dailyInterestRateById",
      "outputs": [
        {
          "internalType": "uint256",
          "name": "",
          "type": "uint256"
        }
      ],
      "stateMutability": "view",
      "type": "function"
    },
    {
      "inputs": [
        {
          "internalType": "uint256",
          "name": "tokenId",
          "type": "uint256"
        }
      ],
      "name": "diff_ipo_burn_timestamps",
      "outputs": [
        {
          "internalType": "uint256",
          "name": "",
          "type": "uint256"
        }
      ],
      "stateMutability": "view",
      "type": "function"
    },
    {
      "inputs": [
        {
          "internalType": "uint256",
          "name": "tokenId",
          "type": "uint256"
        }
      ],
      "name": "getApproved",
      "outputs": [
        {
          "internalType": "address",
          "name": "",
          "type": "address"
        }
      ],
      "stateMutability": "view",
      "type": "function"
    },
    {
      "inputs": [
        {
          "internalType": "address",
          "name": "owner",
          "type": "address"
        },
        {
          "internalType": "address",
          "name": "operator",
          "type": "address"
        }
      ],
      "name": "isApprovedForAll",
      "outputs": [
        {
          "internalType": "bool",
          "name": "",
          "type": "bool"
        }
      ],
      "stateMutability": "view",
      "type": "function"
    },
    {
      "inputs": [
        {
          "internalType": "uint256",
          "name": "tokenId",
          "type": "uint256"
        }
      ],
      "name": "isBurnable",
      "outputs": [
        {
          "internalType": "bool",
          "name": "",
          "type": "bool"
        }
      ],
      "stateMutability": "view",
      "type": "function"
    },
    {
      "inputs": [
        {
          "internalType": "uint256",
          "name": "tokenId",
          "type": "uint256"
        }
      ],
      "name": "metadata",
      "outputs": [
        {
          "components": [
            {
              "internalType": "uint256",
              "name": "ipoSerial",
              "type": "uint256"
            },
            {
              "internalType": "uint256",
              "name": "ipoPrice",
              "type": "uint256"
            },
            {
              "internalType": "uint256",
              "name": "ipoTimestamp",
              "type": "uint256"
            },
            {
              "internalType": "uint256",
              "name": "dailyInterestRate",
              "type": "uint256"
            },
            {
              "internalType": "uint256",
              "name": "burnTimestamp",
              "type": "uint256"
            }
          ],
          "internalType": "struct LibraToken.Metadata",
          "name": "",
          "type": "tuple"
        }
      ],
      "stateMutability": "view",
      "type": "function"
    },
    {
      "inputs": [],
      "name": "name",
      "outputs": [
        {
          "internalType": "string",
          "name": "",
          "type": "string"
        }
      ],
      "stateMutability": "view",
      "type": "function"
    },
    {
      "inputs": [],
      "name": "owner",
      "outputs": [
        {
          "internalType": "address",
          "name": "",
          "type": "address"
        }
      ],
      "stateMutability": "view",
      "type": "function"
    },
    {
      "inputs": [
        {
          "internalType": "uint256",
          "name": "tokenId",
          "type": "uint256"
        }
      ],
      "name": "ownerOf",
      "outputs": [
        {
          "internalType": "address",
          "name": "",
          "type": "address"
        }
      ],
      "stateMutability": "view",
      "type": "function"
    },
    {
      "inputs": [
        {
          "internalType": "uint256",
          "name": "tokenId",
          "type": "uint256"
        },
        {
          "internalType": "uint256",
          "name": "neededTimestampForPrice",
          "type": "uint256"
        }
      ],
      "name": "price",
      "outputs": [
        {
          "internalType": "uint256",
          "name": "",
          "type": "uint256"
        }
      ],
      "stateMutability": "view",
      "type": "function"
    },
    {
      "inputs": [],
      "name": "renounceOwnership",
      "outputs": [],
      "stateMutability": "nonpayable",
      "type": "function"
    },
    {
      "inputs": [],
      "name": "return_owner",
      "outputs": [
        {
          "internalType": "address",
          "name": "",
          "type": "address"
        }
      ],
      "stateMutability": "view",
      "type": "function"
    },
    {
      "inputs": [
        {
          "internalType": "address",
          "name": "from",
          "type": "address"
        },
        {
          "internalType": "address",
          "name": "to",
          "type": "address"
        },
        {
          "internalType": "uint256",
          "name": "tokenId",
          "type": "uint256"
        }
      ],
      "name": "safeTransferFrom",
      "outputs": [],
      "stateMutability": "nonpayable",
      "type": "function"
    },
    {
      "inputs": [
        {
          "internalType": "address",
          "name": "from",
          "type": "address"
        },
        {
          "internalType": "address",
          "name": "to",
          "type": "address"
        },
        {
          "internalType": "uint256",
          "name": "tokenId",
          "type": "uint256"
        },
        {
          "internalType": "bytes",
          "name": "data",
          "type": "bytes"
        }
      ],
      "name": "safeTransferFrom",
      "outputs": [],
      "stateMutability": "nonpayable",
      "type": "function"
    },
    {
      "inputs": [
        {
          "internalType": "address",
          "name": "to",
          "type": "address"
        },
        {
          "internalType": "uint256[]",
          "name": "tokenIds",
          "type": "uint256[]"
        },
        {
          "components": [
            {
              "internalType": "uint256",
              "name": "ipoSerial",
              "type": "uint256"
            },
            {
              "internalType": "uint256",
              "name": "ipoPrice",
              "type": "uint256"
            },
            {
              "internalType": "uint256",
              "name": "ipoTimestamp",
              "type": "uint256"
            },
            {
              "internalType": "uint256",
              "name": "dailyInterestRate",
              "type": "uint256"
            },
            {
              "internalType": "uint256",
              "name": "burnTimestamp",
              "type": "uint256"
            }
          ],
          "internalType": "struct LibraToken.Metadata",
          "name": "inputMetadata",
          "type": "tuple"
        }
      ],
      "name": "serialMint",
      "outputs": [],
      "stateMutability": "nonpayable",
      "type": "function"
    },
    {
      "inputs": [
        {
          "internalType": "address",
          "name": "operator",
          "type": "address"
        },
        {
          "internalType": "bool",
          "name": "approved",
          "type": "bool"
        }
      ],
      "name": "setApprovalForAll",
      "outputs": [],
      "stateMutability": "nonpayable",
      "type": "function"
    },
    {
      "inputs": [
        {
          "internalType": "bytes4",
          "name": "interfaceId",
          "type": "bytes4"
        }
      ],
      "name": "supportsInterface",
      "outputs": [
        {
          "internalType": "bool",
          "name": "",
          "type": "bool"
        }
      ],
      "stateMutability": "view",
      "type": "function"
    },
    {
      "inputs": [],
      "name": "symbol",
      "outputs": [
        {
          "internalType": "string",
          "name": "",
          "type": "string"
        }
      ],
      "stateMutability": "view",
      "type": "function"
    },
    {
      "inputs": [
        {
          "internalType": "uint256",
          "name": "index",
          "type": "uint256"
        }
      ],
      "name": "tokenByIndex",
      "outputs": [
        {
          "internalType": "uint256",
          "name": "",
          "type": "uint256"
        }
      ],
      "stateMutability": "view",
      "type": "function"
    },
    {
      "inputs": [
        {
          "internalType": "address",
          "name": "owner",
          "type": "address"
        },
        {
          "internalType": "uint256",
          "name": "index",
          "type": "uint256"
        }
      ],
      "name": "tokenOfOwnerByIndex",
      "outputs": [
        {
          "internalType": "uint256",
          "name": "",
          "type": "uint256"
        }
      ],
      "stateMutability": "view",
      "type": "function"
    },
    {
      "inputs": [
        {
          "internalType": "uint256",
          "name": "tokenId",
          "type": "uint256"
        }
      ],
      "name": "tokenURI",
      "outputs": [
        {
          "internalType": "string",
          "name": "",
          "type": "string"
        }
      ],
      "stateMutability": "view",
      "type": "function"
    },
    {
      "inputs": [],
      "name": "totalSupply",
      "outputs": [
        {
          "internalType": "uint256",
          "name": "",
          "type": "uint256"
        }
      ],
      "stateMutability": "view",
      "type": "function"
    },
    {
      "inputs": [
        {
          "internalType": "address",
          "name": "from",
          "type": "address"
        },
        {
          "internalType": "address",
          "name": "to",
          "type": "address"
        },
        {
          "internalType": "uint256",
          "name": "tokenId",
          "type": "uint256"
        }
      ],
      "name": "transferFrom",
      "outputs": [],
      "stateMutability": "nonpayable",
      "type": "function"
    },
    {
      "inputs": [
        {
          "internalType": "address",
          "name": "newOwner",
          "type": "address"
        }
      ],
      "name": "transferOwnership",
      "outputs": [],
      "stateMutability": "nonpayable",
      "type": "function"
    }
  ],
  "bytecode": "0x60806040523480156200001157600080fd5b50336040518060400160405280600a81526020017f4c69627261546f6b656e000000000000000000000000000000000000000000008152506040518060400160405280600381526020017f4c42540000000000000000000000000000000000000000000000000000000000815250816000908162000090919062000472565b508060019081620000a2919062000472565b505050600073ffffffffffffffffffffffffffffffffffffffff168173ffffffffffffffffffffffffffffffffffffffff16036200011a5760006040517f1e4fbdf70000000000000000000000000000000000000000000000000000000081526004016200011191906200059e565b60405180910390fd5b6200012b816200013260201b60201c565b50620005bb565b6000600a60009054906101000a900473ffffffffffffffffffffffffffffffffffffffff16905081600a60006101000a81548173ffffffffffffffffffffffffffffffffffffffff021916908373ffffffffffffffffffffffffffffffffffffffff1602179055508173ffffffffffffffffffffffffffffffffffffffff168173ffffffffffffffffffffffffffffffffffffffff167f8be0079c531659141344cd1fd0a4f28419497f9722a3daafe3b4186f6b6457e060405160405180910390a35050565b600081519050919050565b7f4e487b7100000000000000000000000000000000000000000000000000000000600052604160045260246000fd5b7f4e487b7100000000000000000000000000000000000000000000000000000000600052602260045260246000fd5b600060028204905060018216806200027a57607f821691505b60208210810362000290576200028f62000232565b5b50919050565b60008190508160005260206000209050919050565b60006020601f8301049050919050565b600082821b905092915050565b600060088302620002fa7fffffffffffffffffffffffffffffffffffffffffffffffffffffffffffffffff82620002bb565b620003068683620002bb565b95508019841693508086168417925050509392505050565b6000819050919050565b6000819050919050565b6000620003536200034d62000347846200031e565b62000328565b6200031e565b9050919050565b6000819050919050565b6200036f8362000332565b620003876200037e826200035a565b848454620002c8565b825550505050565b600090565b6200039e6200038f565b620003ab81848462000364565b505050565b5b81811015620003d357620003c760008262000394565b600181019050620003b1565b5050565b601f8211156200042257620003ec8162000296565b620003f784620002ab565b8101602085101562000407578190505b6200041f6200041685620002ab565b830182620003b0565b50505b505050565b600082821c905092915050565b6000620004476000198460080262000427565b1980831691505092915050565b600062000462838362000434565b9150826002028217905092915050565b6200047d82620001f8565b67ffffffffffffffff81111562000499576200049862000203565b5b620004a5825462000261565b620004b2828285620003d7565b600060209050601f831160018114620004ea5760008415620004d5578287015190505b620004e1858262000454565b86555062000551565b601f198416620004fa8662000296565b60005b828110156200052457848901518255600182019150602085019450602081019050620004fd565b8683101562000544578489015162000540601f89168262000434565b8355505b6001600288020188555050505b505050505050565b600073ffffffffffffffffffffffffffffffffffffffff82169050919050565b6000620005868262000559565b9050919050565b620005988162000579565b82525050565b6000602082019050620005b560008301846200058d565b92915050565b61302d80620005cb6000396000f3fe608060405234801561001057600080fd5b50600436106101c45760003560e01c806370a08231116100f9578063b88d4fde11610097578063c87b56dd11610071578063c87b56dd1461052b578063e3684e391461055b578063e985e9c51461058b578063f2fde38b146105bb576101c4565b8063b88d4fde146104af578063babbb8d4146104cb578063c6f88d4a146104fb576101c4565b806393fd3abf116100d357806393fd3abf1461042757806395d89b41146104575780639810e08914610475578063a22cb46514610493576101c4565b806370a08231146103cf578063715018a6146103ff5780638da5cb5b14610409576101c4565b806323b872dd1161016657806342966c681161014057806342966c6814610323578063487a23951461033f5780634f6ccce71461036f5780636352211e1461039f576101c4565b806323b872dd146102bb5780632f745c59146102d757806342842e0e14610307576101c4565b8063095ea7b3116101a2578063095ea7b31461024757806318160ddd146102635780631883ca4b146102815780631e2ff94f1461029d576101c4565b806301ffc9a7146101c957806306fdde03146101f9578063081812fc14610217575b600080fd5b6101e360048036038101906101de9190612188565b6105d7565b6040516101f091906121d0565b60405180910390f35b6102016105e9565b60405161020e919061227b565b60405180910390f35b610231600480360381019061022c91906122d3565b61067b565b60405161023e9190612341565b60405180910390f35b610261600480360381019061025c9190612388565b610697565b005b61026b6106ad565b60405161027891906123d7565b60405180910390f35b61029b600480360381019061029691906125cb565b6106ba565b005b6102a5610766565b6040516102b291906123d7565b60405180910390f35b6102d560048036038101906102d0919061263a565b61076e565b005b6102f160048036038101906102ec9190612388565b610870565b6040516102fe91906123d7565b60405180910390f35b610321600480360381019061031c919061263a565b610919565b005b61033d600480360381019061033891906122d3565b610939565b005b6103596004803603810190610354919061268d565b6109d4565b60405161036691906123d7565b60405180910390f35b610389600480360381019061038491906122d3565b610ac4565b60405161039691906123d7565b60405180910390f35b6103b960048036038101906103b491906122d3565b610b3a565b6040516103c69190612341565b60405180910390f35b6103e960048036038101906103e491906126cd565b610b4c565b6040516103f691906123d7565b60405180910390f35b610407610c06565b005b610411610c1a565b60405161041e9190612341565b60405180910390f35b610441600480360381019061043c91906122d3565b610c44565b60405161044e91906123d7565b60405180910390f35b61045f610c69565b60405161046c919061227b565b60405180910390f35b61047d610cfb565b60405161048a9190612341565b60405180910390f35b6104ad60048036038101906104a89190612726565b610d0a565b005b6104c960048036038101906104c4919061281b565b610d20565b005b6104e560048036038101906104e091906122d3565b610d3d565b6040516104f291906123d7565b60405180910390f35b610515600480360381019061051091906122d3565b610d9d565b60405161052291906121d0565b60405180910390f35b610545600480360381019061054091906122d3565b610dc8565b604051610552919061227b565b60405180910390f35b610575600480360381019061057091906122d3565b610e31565b6040516105829190612915565b60405180910390f35b6105a560048036038101906105a09190612930565b610e99565b6040516105b291906121d0565b60405180910390f35b6105d560048036038101906105d091906126cd565b610f2d565b005b60006105e282610fb3565b9050919050565b6060600080546105f89061299f565b80601f01602080910402602001604051908101604052809291908181526020018280546106249061299f565b80156106715780601f1061064657610100808354040283529160200191610671565b820191906000526020600020905b81548152906001019060200180831161065457829003601f168201915b5050505050905090565b60006106868261102d565b50610690826110b5565b9050919050565b6106a982826106a46110f2565b6110fa565b5050565b6000600880549050905090565b60005b82518110156107605781600b60008584815181106106de576106dd6129d0565b5b60200260200101518152602001908152602001600020600082015181600001556020820151816001015560408201518160020155606082015181600301556080820151816004015590505061074d848483815181106107405761073f6129d0565b5b602002602001015161110c565b808061075890612a2e565b9150506106bd565b50505050565b600042905090565b600073ffffffffffffffffffffffffffffffffffffffff168273ffffffffffffffffffffffffffffffffffffffff16036107e05760006040517f64a0ae920000000000000000000000000000000000000000000000000000000081526004016107d79190612341565b60405180910390fd5b60006107f483836107ef6110f2565b61112a565b90508373ffffffffffffffffffffffffffffffffffffffff168173ffffffffffffffffffffffffffffffffffffffff161461086a578382826040517f64283d7b00000000000000000000000000000000000000000000000000000000815260040161086193929190612a76565b60405180910390fd5b50505050565b600061087b83610b4c565b82106108c05782826040517fa57d13dc0000000000000000000000000000000000000000000000000000000081526004016108b7929190612aad565b60405180910390fd5b600660008473ffffffffffffffffffffffffffffffffffffffff1673ffffffffffffffffffffffffffffffffffffffff168152602001908152602001600020600083815260200190815260200160002054905092915050565b61093483838360405180602001604052806000815250610d20565b505050565b610941610c1a565b5061094b81610d9d565b61098a576040517f08c379a000000000000000000000000000000000000000000000000000000000815260040161098190612b48565b60405180910390fd5b61099381611140565b600b60008281526020019081526020016000206000808201600090556001820160009055600282016000905560038201600090556004820160009055505050565b60006109df836111c6565b6000600b60008581526020019081526020016000206002015490506000620151808285610a0c9190612b68565b610a169190612bcb565b90506000600b60008781526020019081526020016000206001015490506000600b6000888152602001908152602001600020600301549050826009600a610a5d9190612d3c565b6064610a699190612d87565b610a739190612dc9565b836009600a610a829190612d3c565b6064610a8e9190612d87565b83610a999190612e14565b610aa39190612dc9565b83610aae9190612d87565b610ab89190612bcb565b94505050505092915050565b6000610ace6106ad565b8210610b14576000826040517fa57d13dc000000000000000000000000000000000000000000000000000000008152600401610b0b929190612aad565b60405180910390fd5b60088281548110610b2857610b276129d0565b5b90600052602060002001549050919050565b6000610b458261102d565b9050919050565b60008073ffffffffffffffffffffffffffffffffffffffff168273ffffffffffffffffffffffffffffffffffffffff1603610bbf5760006040517f89c62b64000000000000000000000000000000000000000000000000000000008152600401610bb69190612341565b60405180910390fd5b600360008373ffffffffffffffffffffffffffffffffffffffff1673ffffffffffffffffffffffffffffffffffffffff168152602001908152602001600020549050919050565b610c0e611240565b610c1860006112c7565b565b6000600a60009054906101000a900473ffffffffffffffffffffffffffffffffffffffff16905090565b600080600b600084815260200190815260200160002060030154905080915050919050565b606060018054610c789061299f565b80601f0160208091040260200160405190810160405280929190818152602001828054610ca49061299f565b8015610cf15780601f10610cc657610100808354040283529160200191610cf1565b820191906000526020600020905b815481529060010190602001808311610cd457829003601f168201915b5050505050905090565b6000610d05610c1a565b905090565b610d1c610d156110f2565b838361138d565b5050565b610d2b84848461076e565b610d37848484846114fc565b50505050565b600080600b60008481526020019081526020016000206002015490506000600b60008581526020019081526020016000206004015490506000620151808383610d869190612b68565b610d909190612bcb565b9050809350505050919050565b6000610da8826111c6565b600b60008381526020019081526020016000206004015442119050919050565b6060610dd38261102d565b506000610dde6116b3565b90506000815111610dfe5760405180602001604052806000815250610e29565b80610e08846116ca565b604051602001610e19929190612e84565b6040516020818303038152906040525b915050919050565b610e396120ed565b610e42826111c6565b600b60008381526020019081526020016000206040518060a0016040529081600082015481526020016001820154815260200160028201548152602001600382015481526020016004820154815250509050919050565b6000600560008473ffffffffffffffffffffffffffffffffffffffff1673ffffffffffffffffffffffffffffffffffffffff16815260200190815260200160002060008373ffffffffffffffffffffffffffffffffffffffff1673ffffffffffffffffffffffffffffffffffffffff16815260200190815260200160002060009054906101000a900460ff16905092915050565b610f35611240565b600073ffffffffffffffffffffffffffffffffffffffff168173ffffffffffffffffffffffffffffffffffffffff1603610fa75760006040517f1e4fbdf7000000000000000000000000000000000000000000000000000000008152600401610f9e9190612341565b60405180910390fd5b610fb0816112c7565b50565b60007f780e9d63000000000000000000000000000000000000000000000000000000007bffffffffffffffffffffffffffffffffffffffffffffffffffffffff1916827bffffffffffffffffffffffffffffffffffffffffffffffffffffffff19161480611026575061102582611798565b5b9050919050565b6000806110398361187a565b9050600073ffffffffffffffffffffffffffffffffffffffff168173ffffffffffffffffffffffffffffffffffffffff16036110ac57826040517f7e2732890000000000000000000000000000000000000000000000000000000081526004016110a391906123d7565b60405180910390fd5b80915050919050565b60006004600083815260200190815260200160002060009054906101000a900473ffffffffffffffffffffffffffffffffffffffff169050919050565b600033905090565b61110783838360016118b7565b505050565b611126828260405180602001604052806000815250611a7c565b5050565b6000611137848484611a98565b90509392505050565b600061114f600083600061112a565b9050600073ffffffffffffffffffffffffffffffffffffffff168173ffffffffffffffffffffffffffffffffffffffff16036111c257816040517f7e2732890000000000000000000000000000000000000000000000000000000081526004016111b991906123d7565b60405180910390fd5b5050565b600073ffffffffffffffffffffffffffffffffffffffff166111e782610b3a565b73ffffffffffffffffffffffffffffffffffffffff160361123d576040517f08c379a000000000000000000000000000000000000000000000000000000000815260040161123490612ef4565b60405180910390fd5b50565b6112486110f2565b73ffffffffffffffffffffffffffffffffffffffff16611266610c1a565b73ffffffffffffffffffffffffffffffffffffffff16146112c5576112896110f2565b6040517f118cdaa70000000000000000000000000000000000000000000000000000000081526004016112bc9190612341565b60405180910390fd5b565b6000600a60009054906101000a900473ffffffffffffffffffffffffffffffffffffffff16905081600a60006101000a81548173ffffffffffffffffffffffffffffffffffffffff021916908373ffffffffffffffffffffffffffffffffffffffff1602179055508173ffffffffffffffffffffffffffffffffffffffff168173ffffffffffffffffffffffffffffffffffffffff167f8be0079c531659141344cd1fd0a4f28419497f9722a3daafe3b4186f6b6457e060405160405180910390a35050565b600073ffffffffffffffffffffffffffffffffffffffff168273ffffffffffffffffffffffffffffffffffffffff16036113fe57816040517f5b08ba180000000000000000000000000000000000000000000000000000000081526004016113f59190612341565b60405180910390fd5b80600560008573ffffffffffffffffffffffffffffffffffffffff1673ffffffffffffffffffffffffffffffffffffffff16815260200190815260200160002060008473ffffffffffffffffffffffffffffffffffffffff1673ffffffffffffffffffffffffffffffffffffffff16815260200190815260200160002060006101000a81548160ff0219169083151502179055508173ffffffffffffffffffffffffffffffffffffffff168373ffffffffffffffffffffffffffffffffffffffff167f17307eab39ab6107e8899845ad3d59bd9653f200f220920489ca2b5937696c31836040516114ef91906121d0565b60405180910390a3505050565b60008373ffffffffffffffffffffffffffffffffffffffff163b11156116ad578273ffffffffffffffffffffffffffffffffffffffff1663150b7a026115406110f2565b8685856040518563ffffffff1660e01b81526004016115629493929190612f69565b6020604051808303816000875af192505050801561159e57506040513d601f19601f8201168201806040525081019061159b9190612fca565b60015b611622573d80600081146115ce576040519150601f19603f3d011682016040523d82523d6000602084013e6115d3565b606091505b50600081510361161a57836040517f64a0ae920000000000000000000000000000000000000000000000000000000081526004016116119190612341565b60405180910390fd5b805181602001fd5b63150b7a0260e01b7bffffffffffffffffffffffffffffffffffffffffffffffffffffffff1916817bffffffffffffffffffffffffffffffffffffffffffffffffffffffff1916146116ab57836040517f64a0ae920000000000000000000000000000000000000000000000000000000081526004016116a29190612341565b60405180910390fd5b505b50505050565b606060405180602001604052806000815250905090565b6060600060016116d984611cb2565b01905060008167ffffffffffffffff8111156116f8576116f76123f7565b5b6040519080825280601f01601f19166020018201604052801561172a5781602001600182028036833780820191505090505b509050600082602001820190505b60011561178d578080600190039150507f3031323334353637383961626364656600000000000000000000000000000000600a86061a8153600a858161178157611780612b9c565b5b04945060008503611738575b819350505050919050565b60007f80ac58cd000000000000000000000000000000000000000000000000000000007bffffffffffffffffffffffffffffffffffffffffffffffffffffffff1916827bffffffffffffffffffffffffffffffffffffffffffffffffffffffff1916148061186357507f5b5e139f000000000000000000000000000000000000000000000000000000007bffffffffffffffffffffffffffffffffffffffffffffffffffffffff1916827bffffffffffffffffffffffffffffffffffffffffffffffffffffffff1916145b80611873575061187282611e05565b5b9050919050565b60006002600083815260200190815260200160002060009054906101000a900473ffffffffffffffffffffffffffffffffffffffff169050919050565b80806118f05750600073ffffffffffffffffffffffffffffffffffffffff168273ffffffffffffffffffffffffffffffffffffffff1614155b15611a245760006119008461102d565b9050600073ffffffffffffffffffffffffffffffffffffffff168373ffffffffffffffffffffffffffffffffffffffff161415801561196b57508273ffffffffffffffffffffffffffffffffffffffff168173ffffffffffffffffffffffffffffffffffffffff1614155b801561197e575061197c8184610e99565b155b156119c057826040517fa9fbf51f0000000000000000000000000000000000000000000000000000000081526004016119b79190612341565b60405180910390fd5b8115611a2257838573ffffffffffffffffffffffffffffffffffffffff168273ffffffffffffffffffffffffffffffffffffffff167f8c5be1e5ebec7d5bd14f71427d1e84f3dd0314c0f7b2291e5b200ac8c7c3b92560405160405180910390a45b505b836004600085815260200190815260200160002060006101000a81548173ffffffffffffffffffffffffffffffffffffffff021916908373ffffffffffffffffffffffffffffffffffffffff16021790555050505050565b611a868383611e6f565b611a9360008484846114fc565b505050565b600080611aa48461187a565b9050600073ffffffffffffffffffffffffffffffffffffffff168373ffffffffffffffffffffffffffffffffffffffff1614611ae657611ae5818486611f68565b5b600073ffffffffffffffffffffffffffffffffffffffff168173ffffffffffffffffffffffffffffffffffffffff1614611b7757611b286000856000806118b7565b6001600360008373ffffffffffffffffffffffffffffffffffffffff1673ffffffffffffffffffffffffffffffffffffffff168152602001908152602001600020600082825403925050819055505b600073ffffffffffffffffffffffffffffffffffffffff168573ffffffffffffffffffffffffffffffffffffffff1614611bfa576001600360008773ffffffffffffffffffffffffffffffffffffffff1673ffffffffffffffffffffffffffffffffffffffff168152602001908152602001600020600082825401925050819055505b846002600086815260200190815260200160002060006101000a81548173ffffffffffffffffffffffffffffffffffffffff021916908373ffffffffffffffffffffffffffffffffffffffff160217905550838573ffffffffffffffffffffffffffffffffffffffff168273ffffffffffffffffffffffffffffffffffffffff167fddf252ad1be2c89b69c2b068fc378daa952ba7f163c4a11628f55a4df523b3ef60405160405180910390a4809150509392505050565b600080600090507a184f03e93ff9f4daa797ed6e38ed64bf6a1f0100000000000000008310611d10577a184f03e93ff9f4daa797ed6e38ed64bf6a1f0100000000000000008381611d0657611d05612b9c565b5b0492506040810190505b6d04ee2d6d415b85acef81000000008310611d4d576d04ee2d6d415b85acef81000000008381611d4357611d42612b9c565b5b0492506020810190505b662386f26fc100008310611d7c57662386f26fc100008381611d7257611d71612b9c565b5b0492506010810190505b6305f5e1008310611da5576305f5e1008381611d9b57611d9a612b9c565b5b0492506008810190505b6127108310611dca576127108381611dc057611dbf612b9c565b5b0492506004810190505b60648310611ded5760648381611de357611de2612b9c565b5b0492506002810190505b600a8310611dfc576001810190505b80915050919050565b60007f01ffc9a7000000000000000000000000000000000000000000000000000000007bffffffffffffffffffffffffffffffffffffffffffffffffffffffff1916827bffffffffffffffffffffffffffffffffffffffffffffffffffffffff1916149050919050565b600073ffffffffffffffffffffffffffffffffffffffff168273ffffffffffffffffffffffffffffffffffffffff1603611ee15760006040517f64a0ae92000000000000000000000000000000000000000000000000000000008152600401611ed89190612341565b60405180910390fd5b6000611eef8383600061112a565b9050600073ffffffffffffffffffffffffffffffffffffffff168173ffffffffffffffffffffffffffffffffffffffff1614611f635760006040517f73c6ac6e000000000000000000000000000000000000000000000000000000008152600401611f5a9190612341565b60405180910390fd5b505050565b611f7383838361202c565b61202757600073ffffffffffffffffffffffffffffffffffffffff168373ffffffffffffffffffffffffffffffffffffffff1603611fe857806040517f7e273289000000000000000000000000000000000000000000000000000000008152600401611fdf91906123d7565b60405180910390fd5b81816040517f177e802f00000000000000000000000000000000000000000000000000000000815260040161201e929190612aad565b60405180910390fd5b505050565b60008073ffffffffffffffffffffffffffffffffffffffff168373ffffffffffffffffffffffffffffffffffffffff16141580156120e457508273ffffffffffffffffffffffffffffffffffffffff168473ffffffffffffffffffffffffffffffffffffffff1614806120a557506120a48484610e99565b5b806120e357508273ffffffffffffffffffffffffffffffffffffffff166120cb836110b5565b73ffffffffffffffffffffffffffffffffffffffff16145b5b90509392505050565b6040518060a0016040528060008152602001600081526020016000815260200160008152602001600081525090565b6000604051905090565b600080fd5b600080fd5b60007fffffffff0000000000000000000000000000000000000000000000000000000082169050919050565b61216581612130565b811461217057600080fd5b50565b6000813590506121828161215c565b92915050565b60006020828403121561219e5761219d612126565b5b60006121ac84828501612173565b91505092915050565b60008115159050919050565b6121ca816121b5565b82525050565b60006020820190506121e560008301846121c1565b92915050565b600081519050919050565b600082825260208201905092915050565b60005b8381101561222557808201518184015260208101905061220a565b60008484015250505050565b6000601f19601f8301169050919050565b600061224d826121eb565b61225781856121f6565b9350612267818560208601612207565b61227081612231565b840191505092915050565b600060208201905081810360008301526122958184612242565b905092915050565b6000819050919050565b6122b08161229d565b81146122bb57600080fd5b50565b6000813590506122cd816122a7565b92915050565b6000602082840312156122e9576122e8612126565b5b60006122f7848285016122be565b91505092915050565b600073ffffffffffffffffffffffffffffffffffffffff82169050919050565b600061232b82612300565b9050919050565b61233b81612320565b82525050565b60006020820190506123566000830184612332565b92915050565b61236581612320565b811461237057600080fd5b50565b6000813590506123828161235c565b92915050565b6000806040838503121561239f5761239e612126565b5b60006123ad85828601612373565b92505060206123be858286016122be565b9150509250929050565b6123d18161229d565b82525050565b60006020820190506123ec60008301846123c8565b92915050565b600080fd5b7f4e487b7100000000000000000000000000000000000000000000000000000000600052604160045260246000fd5b61242f82612231565b810181811067ffffffffffffffff8211171561244e5761244d6123f7565b5b80604052505050565b600061246161211c565b905061246d8282612426565b919050565b600067ffffffffffffffff82111561248d5761248c6123f7565b5b602082029050602081019050919050565b600080fd5b60006124b66124b184612472565b612457565b905080838252602082019050602084028301858111156124d9576124d861249e565b5b835b8181101561250257806124ee88826122be565b8452602084019350506020810190506124db565b5050509392505050565b600082601f830112612521576125206123f2565b5b81356125318482602086016124a3565b91505092915050565b600080fd5b600060a082840312156125555761255461253a565b5b61255f60a0612457565b9050600061256f848285016122be565b6000830152506020612583848285016122be565b6020830152506040612597848285016122be565b60408301525060606125ab848285016122be565b60608301525060806125bf848285016122be565b60808301525092915050565b600080600060e084860312156125e4576125e3612126565b5b60006125f286828701612373565b935050602084013567ffffffffffffffff8111156126135761261261212b565b5b61261f8682870161250c565b92505060406126308682870161253f565b9150509250925092565b60008060006060848603121561265357612652612126565b5b600061266186828701612373565b935050602061267286828701612373565b9250506040612683868287016122be565b9150509250925092565b600080604083850312156126a4576126a3612126565b5b60006126b2858286016122be565b92505060206126c3858286016122be565b9150509250929050565b6000602082840312156126e3576126e2612126565b5b60006126f184828501612373565b91505092915050565b612703816121b5565b811461270e57600080fd5b50565b600081359050612720816126fa565b92915050565b6000806040838503121561273d5761273c612126565b5b600061274b85828601612373565b925050602061275c85828601612711565b9150509250929050565b600080fd5b600067ffffffffffffffff821115612786576127856123f7565b5b61278f82612231565b9050602081019050919050565b82818337600083830152505050565b60006127be6127b98461276b565b612457565b9050828152602081018484840111156127da576127d9612766565b5b6127e584828561279c565b509392505050565b600082601f830112612802576128016123f2565b5b81356128128482602086016127ab565b91505092915050565b6000806000806080858703121561283557612834612126565b5b600061284387828801612373565b945050602061285487828801612373565b9350506040612865878288016122be565b925050606085013567ffffffffffffffff8111156128865761288561212b565b5b612892878288016127ed565b91505092959194509250565b6128a78161229d565b82525050565b60a0820160008201516128c3600085018261289e565b5060208201516128d6602085018261289e565b5060408201516128e9604085018261289e565b5060608201516128fc606085018261289e565b50608082015161290f608085018261289e565b50505050565b600060a08201905061292a60008301846128ad565b92915050565b6000806040838503121561294757612946612126565b5b600061295585828601612373565b925050602061296685828601612373565b9150509250929050565b7f4e487b7100000000000000000000000000000000000000000000000000000000600052602260045260246000fd5b600060028204905060018216806129b757607f821691505b6020821081036129ca576129c9612970565b5b50919050565b7f4e487b7100000000000000000000000000000000000000000000000000000000600052603260045260246000fd5b7f4e487b7100000000000000000000000000000000000000000000000000000000600052601160045260246000fd5b6000612a398261229d565b91507fffffffffffffffffffffffffffffffffffffffffffffffffffffffffffffffff8203612a6b57612a6a6129ff565b5b600182019050919050565b6000606082019050612a8b6000830186612332565b612a9860208301856123c8565b612aa56040830184612332565b949350505050565b6000604082019050612ac26000830185612332565b612acf60208301846123c8565b9392505050565b7f4c42543a206275726e2064617465206973206e6f74207965742072656163686560008201527f6400000000000000000000000000000000000000000000000000000000000000602082015250565b6000612b326021836121f6565b9150612b3d82612ad6565b604082019050919050565b60006020820190508181036000830152612b6181612b25565b9050919050565b6000612b738261229d565b9150612b7e8361229d565b9250828203905081811115612b9657612b956129ff565b5b92915050565b7f4e487b7100000000000000000000000000000000000000000000000000000000600052601260045260246000fd5b6000612bd68261229d565b9150612be18361229d565b925082612bf157612bf0612b9c565b5b828204905092915050565b60008160011c9050919050565b6000808291508390505b6001851115612c5357808604811115612c2f57612c2e6129ff565b5b6001851615612c3e5780820291505b8081029050612c4c85612bfc565b9450612c13565b94509492505050565b600082612c6c5760019050612d28565b81612c7a5760009050612d28565b8160018114612c905760028114612c9a57612cc9565b6001915050612d28565b60ff841115612cac57612cab6129ff565b5b8360020a915084821115612cc357612cc26129ff565b5b50612d28565b5060208310610133831016604e8410600b8410161715612cfe5782820a905083811115612cf957612cf86129ff565b5b612d28565b612d0b8484846001612c09565b92509050818404811115612d2257612d216129ff565b5b81810290505b9392505050565b600060ff82169050919050565b6000612d478261229d565b9150612d5283612d2f565b9250612d7f7fffffffffffffffffffffffffffffffffffffffffffffffffffffffffffffffff8484612c5c565b905092915050565b6000612d928261229d565b9150612d9d8361229d565b9250828202612dab8161229d565b91508282048414831517612dc257612dc16129ff565b5b5092915050565b6000612dd48261229d565b9150612ddf8361229d565b9250612e0c7fffffffffffffffffffffffffffffffffffffffffffffffffffffffffffffffff8484612c5c565b905092915050565b6000612e1f8261229d565b9150612e2a8361229d565b9250828201905080821115612e4257612e416129ff565b5b92915050565b600081905092915050565b6000612e5e826121eb565b612e688185612e48565b9350612e78818560208601612207565b80840191505092915050565b6000612e908285612e53565b9150612e9c8284612e53565b91508190509392505050565b7f4c42543a20746f6b656e20646f6573206e6f7420657869737400000000000000600082015250565b6000612ede6019836121f6565b9150612ee982612ea8565b602082019050919050565b60006020820190508181036000830152612f0d81612ed1565b9050919050565b600081519050919050565b600082825260208201905092915050565b6000612f3b82612f14565b612f458185612f1f565b9350612f55818560208601612207565b612f5e81612231565b840191505092915050565b6000608082019050612f7e6000830187612332565b612f8b6020830186612332565b612f9860408301856123c8565b8181036060830152612faa8184612f30565b905095945050505050565b600081519050612fc48161215c565b92915050565b600060208284031215612fe057612fdf612126565b5b6000612fee84828501612fb5565b9150509291505056fea2646970667358221220562f76c40d7b6c0e7b054c85b59c909a4aa8b2bb64babb92ad0706bc087b899264736f6c63430008140033",
  "linkReferences": {},
  "deployedLinkReferences": {}
}