{
  "_format": "hh-sol-artifact-1",
  "contractName": "LibraToken",
  "sourceName": "contracts/LibraToken.sol",
  "abi": [
    {
      "inputs": [],
      "stateMutability": "nonpayable",
      "type": "constructor"
    },
    {
      "inputs": [],
      "name": "ERC721EnumerableForbiddenBatchMint",
      "type": "error"
    },
    {
      "inputs": [
        {
          "internalType": "address",
          "name": "sender",
          "type": "address"
        },
        {
          "internalType": "uint256",
          "name": "tokenId",
          "type": "uint256"
        },
        {
          "internalType": "address",
          "name": "owner",
          "type": "address"
        }
      ],
      "name": "ERC721IncorrectOwner",
      "type": "error"
    },
    {
      "inputs": [
        {
          "internalType": "address",
          "name": "operator",
          "type": "address"
        },
        {
          "internalType": "uint256",
          "name": "tokenId",
          "type": "uint256"
        }
      ],
      "name": "ERC721InsufficientApproval",
      "type": "error"
    },
    {
      "inputs": [
        {
          "internalType": "address",
          "name": "approver",
          "type": "address"
        }
      ],
      "name": "ERC721InvalidApprover",
      "type": "error"
    },
    {
      "inputs": [
        {
          "internalType": "address",
          "name": "operator",
          "type": "address"
        }
      ],
      "name": "ERC721InvalidOperator",
      "type": "error"
    },
    {
      "inputs": [
        {
          "internalType": "address",
          "name": "owner",
          "type": "address"
        }
      ],
      "name": "ERC721InvalidOwner",
      "type": "error"
    },
    {
      "inputs": [
        {
          "internalType": "address",
          "name": "receiver",
          "type": "address"
        }
      ],
      "name": "ERC721InvalidReceiver",
      "type": "error"
    },
    {
      "inputs": [
        {
          "internalType": "address",
          "name": "sender",
          "type": "address"
        }
      ],
      "name": "ERC721InvalidSender",
      "type": "error"
    },
    {
      "inputs": [
        {
          "internalType": "uint256",
          "name": "tokenId",
          "type": "uint256"
        }
      ],
      "name": "ERC721NonexistentToken",
      "type": "error"
    },
    {
      "inputs": [
        {
          "internalType": "address",
          "name": "owner",
          "type": "address"
        },
        {
          "internalType": "uint256",
          "name": "index",
          "type": "uint256"
        }
      ],
      "name": "ERC721OutOfBoundsIndex",
      "type": "error"
    },
    {
      "inputs": [
        {
          "internalType": "address",
          "name": "owner",
          "type": "address"
        }
      ],
      "name": "OwnableInvalidOwner",
      "type": "error"
    },
    {
      "inputs": [
        {
          "internalType": "address",
          "name": "account",
          "type": "address"
        }
      ],
      "name": "OwnableUnauthorizedAccount",
      "type": "error"
    },
    {
      "anonymous": false,
      "inputs": [
        {
          "indexed": true,
          "internalType": "address",
          "name": "owner",
          "type": "address"
        },
        {
          "indexed": true,
          "internalType": "address",
          "name": "approved",
          "type": "address"
        },
        {
          "indexed": true,
          "internalType": "uint256",
          "name": "tokenId",
          "type": "uint256"
        }
      ],
      "name": "Approval",
      "type": "event"
    },
    {
      "anonymous": false,
      "inputs": [
        {
          "indexed": true,
          "internalType": "address",
          "name": "owner",
          "type": "address"
        },
        {
          "indexed": true,
          "internalType": "address",
          "name": "operator",
          "type": "address"
        },
        {
          "indexed": false,
          "internalType": "bool",
          "name": "approved",
          "type": "bool"
        }
      ],
      "name": "ApprovalForAll",
      "type": "event"
    },
    {
      "anonymous": false,
      "inputs": [
        {
          "indexed": false,
          "internalType": "uint256",
          "name": "timestamp",
          "type": "uint256"
        }
      ],
      "name": "MyEvent",
      "type": "event"
    },
    {
      "anonymous": false,
      "inputs": [
        {
          "indexed": true,
          "internalType": "address",
          "name": "previousOwner",
          "type": "address"
        },
        {
          "indexed": true,
          "internalType": "address",
          "name": "newOwner",
          "type": "address"
        }
      ],
      "name": "OwnershipTransferred",
      "type": "event"
    },
    {
      "anonymous": false,
      "inputs": [
        {
          "indexed": true,
          "internalType": "address",
          "name": "from",
          "type": "address"
        },
        {
          "indexed": true,
          "internalType": "address",
          "name": "to",
          "type": "address"
        },
        {
          "indexed": true,
          "internalType": "uint256",
          "name": "tokenId",
          "type": "uint256"
        }
      ],
      "name": "Transfer",
      "type": "event"
    },
    {
      "inputs": [
        {
          "internalType": "address",
          "name": "to",
          "type": "address"
        },
        {
          "internalType": "uint256",
          "name": "tokenId",
          "type": "uint256"
        }
      ],
      "name": "approve",
      "outputs": [],
      "stateMutability": "nonpayable",
      "type": "function"
    },
    {
      "inputs": [
        {
          "internalType": "address",
          "name": "owner",
          "type": "address"
        }
      ],
      "name": "balanceOf",
      "outputs": [
        {
          "internalType": "uint256",
          "name": "",
          "type": "uint256"
        }
      ],
      "stateMutability": "view",
      "type": "function"
    },
    {
      "inputs": [
        {
          "internalType": "uint256",
          "name": "tokenId",
          "type": "uint256"
        }
      ],
      "name": "burn",
      "outputs": [],
      "stateMutability": "nonpayable",
      "type": "function"
    },
    {
      "inputs": [],
      "name": "currentTimestamp",
      "outputs": [
        {
          "internalType": "uint256",
          "name": "",
          "type": "uint256"
        }
      ],
      "stateMutability": "view",
      "type": "function"
    },
    {
      "inputs": [
        {
          "internalType": "uint256",
          "name": "tokenId",
          "type": "uint256"
        }
      ],
      "name": "getApproved",
      "outputs": [
        {
          "internalType": "address",
          "name": "",
          "type": "address"
        }
      ],
      "stateMutability": "view",
      "type": "function"
    },
    {
      "inputs": [
        {
          "internalType": "address",
          "name": "owner",
          "type": "address"
        },
        {
          "internalType": "address",
          "name": "operator",
          "type": "address"
        }
      ],
      "name": "isApprovedForAll",
      "outputs": [
        {
          "internalType": "bool",
          "name": "",
          "type": "bool"
        }
      ],
      "stateMutability": "view",
      "type": "function"
    },
    {
      "inputs": [
        {
          "internalType": "uint256",
          "name": "tokenId",
          "type": "uint256"
        }
      ],
      "name": "isBurnable",
      "outputs": [
        {
          "internalType": "bool",
          "name": "",
          "type": "bool"
        }
      ],
      "stateMutability": "view",
      "type": "function"
    },
    {
      "inputs": [
        {
          "internalType": "uint256",
          "name": "tokenId",
          "type": "uint256"
        }
      ],
      "name": "metadata",
      "outputs": [
        {
          "components": [
            {
              "internalType": "uint256",
              "name": "ipoSerial",
              "type": "uint256"
            },
            {
              "internalType": "uint256",
              "name": "ipoPrice",
              "type": "uint256"
            },
            {
              "internalType": "uint256",
              "name": "ipoTimestamp",
              "type": "uint256"
            },
            {
              "internalType": "uint256",
              "name": "dailyInterestRate",
              "type": "uint256"
            },
            {
              "internalType": "uint256",
              "name": "burnTimestamp",
              "type": "uint256"
            }
          ],
          "internalType": "struct LibraToken.Metadata",
          "name": "",
          "type": "tuple"
        }
      ],
      "stateMutability": "view",
      "type": "function"
    },
    {
      "inputs": [],
      "name": "name",
      "outputs": [
        {
          "internalType": "string",
          "name": "",
          "type": "string"
        }
      ],
      "stateMutability": "view",
      "type": "function"
    },
    {
      "inputs": [],
      "name": "owner",
      "outputs": [
        {
          "internalType": "address",
          "name": "",
          "type": "address"
        }
      ],
      "stateMutability": "view",
      "type": "function"
    },
    {
      "inputs": [
        {
          "internalType": "uint256",
          "name": "tokenId",
          "type": "uint256"
        }
      ],
      "name": "ownerOf",
      "outputs": [
        {
          "internalType": "address",
          "name": "",
          "type": "address"
        }
      ],
      "stateMutability": "view",
      "type": "function"
    },
    {
      "inputs": [
        {
          "internalType": "uint256",
          "name": "tokenId",
          "type": "uint256"
        },
        {
          "internalType": "uint256",
          "name": "neededTimestampForPrice",
          "type": "uint256"
        }
      ],
      "name": "price",
      "outputs": [
        {
          "internalType": "uint256",
          "name": "",
          "type": "uint256"
        }
      ],
      "stateMutability": "view",
      "type": "function"
    },
    {
      "inputs": [],
      "name": "renounceOwnership",
      "outputs": [],
      "stateMutability": "nonpayable",
      "type": "function"
    },
    {
      "inputs": [],
      "name": "return_owner",
      "outputs": [
        {
          "internalType": "address",
          "name": "",
          "type": "address"
        }
      ],
      "stateMutability": "view",
      "type": "function"
    },
    {
      "inputs": [
        {
          "internalType": "address",
          "name": "from",
          "type": "address"
        },
        {
          "internalType": "address",
          "name": "to",
          "type": "address"
        },
        {
          "internalType": "uint256",
          "name": "tokenId",
          "type": "uint256"
        }
      ],
      "name": "safeTransferFrom",
      "outputs": [],
      "stateMutability": "nonpayable",
      "type": "function"
    },
    {
      "inputs": [
        {
          "internalType": "address",
          "name": "from",
          "type": "address"
        },
        {
          "internalType": "address",
          "name": "to",
          "type": "address"
        },
        {
          "internalType": "uint256",
          "name": "tokenId",
          "type": "uint256"
        },
        {
          "internalType": "bytes",
          "name": "data",
          "type": "bytes"
        }
      ],
      "name": "safeTransferFrom",
      "outputs": [],
      "stateMutability": "nonpayable",
      "type": "function"
    },
    {
      "inputs": [
        {
          "internalType": "address",
          "name": "to",
          "type": "address"
        },
        {
          "internalType": "uint256[]",
          "name": "tokenIds",
          "type": "uint256[]"
        },
        {
          "components": [
            {
              "internalType": "uint256",
              "name": "ipoSerial",
              "type": "uint256"
            },
            {
              "internalType": "uint256",
              "name": "ipoPrice",
              "type": "uint256"
            },
            {
              "internalType": "uint256",
              "name": "ipoTimestamp",
              "type": "uint256"
            },
            {
              "internalType": "uint256",
              "name": "dailyInterestRate",
              "type": "uint256"
            },
            {
              "internalType": "uint256",
              "name": "burnTimestamp",
              "type": "uint256"
            }
          ],
          "internalType": "struct LibraToken.Metadata",
          "name": "inputMetadata",
          "type": "tuple"
        }
      ],
      "name": "serialMint",
      "outputs": [],
      "stateMutability": "nonpayable",
      "type": "function"
    },
    {
      "inputs": [
        {
          "internalType": "address",
          "name": "operator",
          "type": "address"
        },
        {
          "internalType": "bool",
          "name": "approved",
          "type": "bool"
        }
      ],
      "name": "setApprovalForAll",
      "outputs": [],
      "stateMutability": "nonpayable",
      "type": "function"
    },
    {
      "inputs": [
        {
          "internalType": "bytes4",
          "name": "interfaceId",
          "type": "bytes4"
        }
      ],
      "name": "supportsInterface",
      "outputs": [
        {
          "internalType": "bool",
          "name": "",
          "type": "bool"
        }
      ],
      "stateMutability": "view",
      "type": "function"
    },
    {
      "inputs": [],
      "name": "symbol",
      "outputs": [
        {
          "internalType": "string",
          "name": "",
          "type": "string"
        }
      ],
      "stateMutability": "view",
      "type": "function"
    },
    {
      "inputs": [
        {
          "internalType": "uint256",
          "name": "index",
          "type": "uint256"
        }
      ],
      "name": "tokenByIndex",
      "outputs": [
        {
          "internalType": "uint256",
          "name": "",
          "type": "uint256"
        }
      ],
      "stateMutability": "view",
      "type": "function"
    },
    {
      "inputs": [
        {
          "internalType": "address",
          "name": "owner",
          "type": "address"
        },
        {
          "internalType": "uint256",
          "name": "index",
          "type": "uint256"
        }
      ],
      "name": "tokenOfOwnerByIndex",
      "outputs": [
        {
          "internalType": "uint256",
          "name": "",
          "type": "uint256"
        }
      ],
      "stateMutability": "view",
      "type": "function"
    },
    {
      "inputs": [
        {
          "internalType": "uint256",
          "name": "tokenId",
          "type": "uint256"
        }
      ],
      "name": "tokenURI",
      "outputs": [
        {
          "internalType": "string",
          "name": "",
          "type": "string"
        }
      ],
      "stateMutability": "view",
      "type": "function"
    },
    {
      "inputs": [],
      "name": "totalSupply",
      "outputs": [
        {
          "internalType": "uint256",
          "name": "",
          "type": "uint256"
        }
      ],
      "stateMutability": "view",
      "type": "function"
    },
    {
      "inputs": [
        {
          "internalType": "address",
          "name": "from",
          "type": "address"
        },
        {
          "internalType": "address",
          "name": "to",
          "type": "address"
        },
        {
          "internalType": "uint256",
          "name": "tokenId",
          "type": "uint256"
        }
      ],
      "name": "transferFrom",
      "outputs": [],
      "stateMutability": "nonpayable",
      "type": "function"
    },
    {
      "inputs": [
        {
          "internalType": "address",
          "name": "newOwner",
          "type": "address"
        }
      ],
      "name": "transferOwnership",
      "outputs": [],
      "stateMutability": "nonpayable",
      "type": "function"
    }
  ],
  "bytecode": "0x60806040523480156200001157600080fd5b50336040518060400160405280600a81526020017f4c69627261546f6b656e000000000000000000000000000000000000000000008152506040518060400160405280600381526020017f4c42540000000000000000000000000000000000000000000000000000000000815250816000908162000090919062000472565b508060019081620000a2919062000472565b505050600073ffffffffffffffffffffffffffffffffffffffff168173ffffffffffffffffffffffffffffffffffffffff16036200011a5760006040517f1e4fbdf70000000000000000000000000000000000000000000000000000000081526004016200011191906200059e565b60405180910390fd5b6200012b816200013260201b60201c565b50620005bb565b6000600a60009054906101000a900473ffffffffffffffffffffffffffffffffffffffff16905081600a60006101000a81548173ffffffffffffffffffffffffffffffffffffffff021916908373ffffffffffffffffffffffffffffffffffffffff1602179055508173ffffffffffffffffffffffffffffffffffffffff168173ffffffffffffffffffffffffffffffffffffffff167f8be0079c531659141344cd1fd0a4f28419497f9722a3daafe3b4186f6b6457e060405160405180910390a35050565b600081519050919050565b7f4e487b7100000000000000000000000000000000000000000000000000000000600052604160045260246000fd5b7f4e487b7100000000000000000000000000000000000000000000000000000000600052602260045260246000fd5b600060028204905060018216806200027a57607f821691505b60208210810362000290576200028f62000232565b5b50919050565b60008190508160005260206000209050919050565b60006020601f8301049050919050565b600082821b905092915050565b600060088302620002fa7fffffffffffffffffffffffffffffffffffffffffffffffffffffffffffffffff82620002bb565b620003068683620002bb565b95508019841693508086168417925050509392505050565b6000819050919050565b6000819050919050565b6000620003536200034d62000347846200031e565b62000328565b6200031e565b9050919050565b6000819050919050565b6200036f8362000332565b620003876200037e826200035a565b848454620002c8565b825550505050565b600090565b6200039e6200038f565b620003ab81848462000364565b505050565b5b81811015620003d357620003c760008262000394565b600181019050620003b1565b5050565b601f8211156200042257620003ec8162000296565b620003f784620002ab565b8101602085101562000407578190505b6200041f6200041685620002ab565b830182620003b0565b50505b505050565b600082821c905092915050565b6000620004476000198460080262000427565b1980831691505092915050565b600062000462838362000434565b9150826002028217905092915050565b6200047d82620001f8565b67ffffffffffffffff81111562000499576200049862000203565b5b620004a5825462000261565b620004b2828285620003d7565b600060209050601f831160018114620004ea5760008415620004d5578287015190505b620004e1858262000454565b86555062000551565b601f198416620004fa8662000296565b60005b828110156200052457848901518255600182019150602085019450602081019050620004fd565b8683101562000544578489015162000540601f89168262000434565b8355505b6001600288020188555050505b505050505050565b600073ffffffffffffffffffffffffffffffffffffffff82169050919050565b6000620005868262000559565b9050919050565b620005988162000579565b82525050565b6000602082019050620005b560008301846200058d565b92915050565b612f1280620005cb6000396000f3fe608060405234801561001057600080fd5b506004361061018e5760003560e01c80636352211e116100de578063a22cb46511610097578063c87b56dd11610071578063c87b56dd14610495578063e3684e39146104c5578063e985e9c5146104f5578063f2fde38b146105255761018e565b8063a22cb4651461042d578063b88d4fde14610449578063c6f88d4a146104655761018e565b80636352211e1461036957806370a0823114610399578063715018a6146103c95780638da5cb5b146103d357806395d89b41146103f15780639810e0891461040f5761018e565b80631e2ff94f1161014b57806342842e0e1161012557806342842e0e146102d157806342966c68146102ed578063487a2395146103095780634f6ccce7146103395761018e565b80631e2ff94f1461026757806323b872dd146102855780632f745c59146102a15761018e565b806301ffc9a71461019357806306fdde03146101c3578063081812fc146101e1578063095ea7b31461021157806318160ddd1461022d5780631883ca4b1461024b575b600080fd5b6101ad60048036038101906101a8919061206d565b610541565b6040516101ba91906120b5565b60405180910390f35b6101cb610553565b6040516101d89190612160565b60405180910390f35b6101fb60048036038101906101f691906121b8565b6105e5565b6040516102089190612226565b60405180910390f35b61022b6004803603810190610226919061226d565b610601565b005b610235610617565b60405161024291906122bc565b60405180910390f35b610265600480360381019061026091906124b0565b610624565b005b61026f6106d0565b60405161027c91906122bc565b60405180910390f35b61029f600480360381019061029a919061251f565b6106d8565b005b6102bb60048036038101906102b6919061226d565b6107da565b6040516102c891906122bc565b60405180910390f35b6102eb60048036038101906102e6919061251f565b610883565b005b610307600480360381019061030291906121b8565b6108a3565b005b610323600480360381019061031e9190612572565b61093e565b60405161033091906122bc565b60405180910390f35b610353600480360381019061034e91906121b8565b610a2e565b60405161036091906122bc565b60405180910390f35b610383600480360381019061037e91906121b8565b610aa4565b6040516103909190612226565b60405180910390f35b6103b360048036038101906103ae91906125b2565b610ab6565b6040516103c091906122bc565b60405180910390f35b6103d1610b70565b005b6103db610b84565b6040516103e89190612226565b60405180910390f35b6103f9610bae565b6040516104069190612160565b60405180910390f35b610417610c40565b6040516104249190612226565b60405180910390f35b6104476004803603810190610442919061260b565b610c4f565b005b610463600480360381019061045e9190612700565b610c65565b005b61047f600480360381019061047a91906121b8565b610c82565b60405161048c91906120b5565b60405180910390f35b6104af60048036038101906104aa91906121b8565b610cad565b6040516104bc9190612160565b60405180910390f35b6104df60048036038101906104da91906121b8565b610d16565b6040516104ec91906127fa565b60405180910390f35b61050f600480360381019061050a9190612815565b610d7e565b60405161051c91906120b5565b60405180910390f35b61053f600480360381019061053a91906125b2565b610e12565b005b600061054c82610e98565b9050919050565b60606000805461056290612884565b80601f016020809104026020016040519081016040528092919081815260200182805461058e90612884565b80156105db5780601f106105b0576101008083540402835291602001916105db565b820191906000526020600020905b8154815290600101906020018083116105be57829003601f168201915b5050505050905090565b60006105f082610f12565b506105fa82610f9a565b9050919050565b610613828261060e610fd7565b610fdf565b5050565b6000600880549050905090565b60005b82518110156106ca5781600b6000858481518110610648576106476128b5565b5b6020026020010151815260200190815260200160002060008201518160000155602082015181600101556040820151816002015560608201518160030155608082015181600401559050506106b7848483815181106106aa576106a96128b5565b5b6020026020010151610ff1565b80806106c290612913565b915050610627565b50505050565b600042905090565b600073ffffffffffffffffffffffffffffffffffffffff168273ffffffffffffffffffffffffffffffffffffffff160361074a5760006040517f64a0ae920000000000000000000000000000000000000000000000000000000081526004016107419190612226565b60405180910390fd5b600061075e8383610759610fd7565b61100f565b90508373ffffffffffffffffffffffffffffffffffffffff168173ffffffffffffffffffffffffffffffffffffffff16146107d4578382826040517f64283d7b0000000000000000000000000000000000000000000000000000000081526004016107cb9392919061295b565b60405180910390fd5b50505050565b60006107e583610ab6565b821061082a5782826040517fa57d13dc000000000000000000000000000000000000000000000000000000008152600401610821929190612992565b60405180910390fd5b600660008473ffffffffffffffffffffffffffffffffffffffff1673ffffffffffffffffffffffffffffffffffffffff168152602001908152602001600020600083815260200190815260200160002054905092915050565b61089e83838360405180602001604052806000815250610c65565b505050565b6108ab610b84565b506108b581610c82565b6108f4576040517f08c379a00000000000000000000000000000000000000000000000000000000081526004016108eb90612a2d565b60405180910390fd5b6108fd81611025565b600b60008281526020019081526020016000206000808201600090556001820160009055600282016000905560038201600090556004820160009055505050565b6000610949836110ab565b6000600b600085815260200190815260200160002060020154905060006201518082856109769190612a4d565b6109809190612ab0565b90506000600b60008781526020019081526020016000206001015490506000600b6000888152602001908152602001600020600301549050826009600a6109c79190612c21565b60646109d39190612c6c565b6109dd9190612cae565b836009600a6109ec9190612c21565b60646109f89190612c6c565b83610a039190612cf9565b610a0d9190612cae565b83610a189190612c6c565b610a229190612ab0565b94505050505092915050565b6000610a38610617565b8210610a7e576000826040517fa57d13dc000000000000000000000000000000000000000000000000000000008152600401610a75929190612992565b60405180910390fd5b60088281548110610a9257610a916128b5565b5b90600052602060002001549050919050565b6000610aaf82610f12565b9050919050565b60008073ffffffffffffffffffffffffffffffffffffffff168273ffffffffffffffffffffffffffffffffffffffff1603610b295760006040517f89c62b64000000000000000000000000000000000000000000000000000000008152600401610b209190612226565b60405180910390fd5b600360008373ffffffffffffffffffffffffffffffffffffffff1673ffffffffffffffffffffffffffffffffffffffff168152602001908152602001600020549050919050565b610b78611125565b610b8260006111ac565b565b6000600a60009054906101000a900473ffffffffffffffffffffffffffffffffffffffff16905090565b606060018054610bbd90612884565b80601f0160208091040260200160405190810160405280929190818152602001828054610be990612884565b8015610c365780601f10610c0b57610100808354040283529160200191610c36565b820191906000526020600020905b815481529060010190602001808311610c1957829003601f168201915b5050505050905090565b6000610c4a610b84565b905090565b610c61610c5a610fd7565b8383611272565b5050565b610c708484846106d8565b610c7c848484846113e1565b50505050565b6000610c8d826110ab565b600b60008381526020019081526020016000206004015442119050919050565b6060610cb882610f12565b506000610cc3611598565b90506000815111610ce35760405180602001604052806000815250610d0e565b80610ced846115af565b604051602001610cfe929190612d69565b6040516020818303038152906040525b915050919050565b610d1e611fd2565b610d27826110ab565b600b60008381526020019081526020016000206040518060a0016040529081600082015481526020016001820154815260200160028201548152602001600382015481526020016004820154815250509050919050565b6000600560008473ffffffffffffffffffffffffffffffffffffffff1673ffffffffffffffffffffffffffffffffffffffff16815260200190815260200160002060008373ffffffffffffffffffffffffffffffffffffffff1673ffffffffffffffffffffffffffffffffffffffff16815260200190815260200160002060009054906101000a900460ff16905092915050565b610e1a611125565b600073ffffffffffffffffffffffffffffffffffffffff168173ffffffffffffffffffffffffffffffffffffffff1603610e8c5760006040517f1e4fbdf7000000000000000000000000000000000000000000000000000000008152600401610e839190612226565b60405180910390fd5b610e95816111ac565b50565b60007f780e9d63000000000000000000000000000000000000000000000000000000007bffffffffffffffffffffffffffffffffffffffffffffffffffffffff1916827bffffffffffffffffffffffffffffffffffffffffffffffffffffffff19161480610f0b5750610f0a8261167d565b5b9050919050565b600080610f1e8361175f565b9050600073ffffffffffffffffffffffffffffffffffffffff168173ffffffffffffffffffffffffffffffffffffffff1603610f9157826040517f7e273289000000000000000000000000000000000000000000000000000000008152600401610f8891906122bc565b60405180910390fd5b80915050919050565b60006004600083815260200190815260200160002060009054906101000a900473ffffffffffffffffffffffffffffffffffffffff169050919050565b600033905090565b610fec838383600161179c565b505050565b61100b828260405180602001604052806000815250611961565b5050565b600061101c84848461197d565b90509392505050565b6000611034600083600061100f565b9050600073ffffffffffffffffffffffffffffffffffffffff168173ffffffffffffffffffffffffffffffffffffffff16036110a757816040517f7e27328900000000000000000000000000000000000000000000000000000000815260040161109e91906122bc565b60405180910390fd5b5050565b600073ffffffffffffffffffffffffffffffffffffffff166110cc82610aa4565b73ffffffffffffffffffffffffffffffffffffffff1603611122576040517f08c379a000000000000000000000000000000000000000000000000000000000815260040161111990612dd9565b60405180910390fd5b50565b61112d610fd7565b73ffffffffffffffffffffffffffffffffffffffff1661114b610b84565b73ffffffffffffffffffffffffffffffffffffffff16146111aa5761116e610fd7565b6040517f118cdaa70000000000000000000000000000000000000000000000000000000081526004016111a19190612226565b60405180910390fd5b565b6000600a60009054906101000a900473ffffffffffffffffffffffffffffffffffffffff16905081600a60006101000a81548173ffffffffffffffffffffffffffffffffffffffff021916908373ffffffffffffffffffffffffffffffffffffffff1602179055508173ffffffffffffffffffffffffffffffffffffffff168173ffffffffffffffffffffffffffffffffffffffff167f8be0079c531659141344cd1fd0a4f28419497f9722a3daafe3b4186f6b6457e060405160405180910390a35050565b600073ffffffffffffffffffffffffffffffffffffffff168273ffffffffffffffffffffffffffffffffffffffff16036112e357816040517f5b08ba180000000000000000000000000000000000000000000000000000000081526004016112da9190612226565b60405180910390fd5b80600560008573ffffffffffffffffffffffffffffffffffffffff1673ffffffffffffffffffffffffffffffffffffffff16815260200190815260200160002060008473ffffffffffffffffffffffffffffffffffffffff1673ffffffffffffffffffffffffffffffffffffffff16815260200190815260200160002060006101000a81548160ff0219169083151502179055508173ffffffffffffffffffffffffffffffffffffffff168373ffffffffffffffffffffffffffffffffffffffff167f17307eab39ab6107e8899845ad3d59bd9653f200f220920489ca2b5937696c31836040516113d491906120b5565b60405180910390a3505050565b60008373ffffffffffffffffffffffffffffffffffffffff163b1115611592578273ffffffffffffffffffffffffffffffffffffffff1663150b7a02611425610fd7565b8685856040518563ffffffff1660e01b81526004016114479493929190612e4e565b6020604051808303816000875af192505050801561148357506040513d601f19601f820116820180604052508101906114809190612eaf565b60015b611507573d80600081146114b3576040519150601f19603f3d011682016040523d82523d6000602084013e6114b8565b606091505b5060008151036114ff57836040517f64a0ae920000000000000000000000000000000000000000000000000000000081526004016114f69190612226565b60405180910390fd5b805181602001fd5b63150b7a0260e01b7bffffffffffffffffffffffffffffffffffffffffffffffffffffffff1916817bffffffffffffffffffffffffffffffffffffffffffffffffffffffff19161461159057836040517f64a0ae920000000000000000000000000000000000000000000000000000000081526004016115879190612226565b60405180910390fd5b505b50505050565b606060405180602001604052806000815250905090565b6060600060016115be84611b97565b01905060008167ffffffffffffffff8111156115dd576115dc6122dc565b5b6040519080825280601f01601f19166020018201604052801561160f5781602001600182028036833780820191505090505b509050600082602001820190505b600115611672578080600190039150507f3031323334353637383961626364656600000000000000000000000000000000600a86061a8153600a858161166657611665612a81565b5b0494506000850361161d575b819350505050919050565b60007f80ac58cd000000000000000000000000000000000000000000000000000000007bffffffffffffffffffffffffffffffffffffffffffffffffffffffff1916827bffffffffffffffffffffffffffffffffffffffffffffffffffffffff1916148061174857507f5b5e139f000000000000000000000000000000000000000000000000000000007bffffffffffffffffffffffffffffffffffffffffffffffffffffffff1916827bffffffffffffffffffffffffffffffffffffffffffffffffffffffff1916145b80611758575061175782611cea565b5b9050919050565b60006002600083815260200190815260200160002060009054906101000a900473ffffffffffffffffffffffffffffffffffffffff169050919050565b80806117d55750600073ffffffffffffffffffffffffffffffffffffffff168273ffffffffffffffffffffffffffffffffffffffff1614155b156119095760006117e584610f12565b9050600073ffffffffffffffffffffffffffffffffffffffff168373ffffffffffffffffffffffffffffffffffffffff161415801561185057508273ffffffffffffffffffffffffffffffffffffffff168173ffffffffffffffffffffffffffffffffffffffff1614155b801561186357506118618184610d7e565b155b156118a557826040517fa9fbf51f00000000000000000000000000000000000000000000000000000000815260040161189c9190612226565b60405180910390fd5b811561190757838573ffffffffffffffffffffffffffffffffffffffff168273ffffffffffffffffffffffffffffffffffffffff167f8c5be1e5ebec7d5bd14f71427d1e84f3dd0314c0f7b2291e5b200ac8c7c3b92560405160405180910390a45b505b836004600085815260200190815260200160002060006101000a81548173ffffffffffffffffffffffffffffffffffffffff021916908373ffffffffffffffffffffffffffffffffffffffff16021790555050505050565b61196b8383611d54565b61197860008484846113e1565b505050565b6000806119898461175f565b9050600073ffffffffffffffffffffffffffffffffffffffff168373ffffffffffffffffffffffffffffffffffffffff16146119cb576119ca818486611e4d565b5b600073ffffffffffffffffffffffffffffffffffffffff168173ffffffffffffffffffffffffffffffffffffffff1614611a5c57611a0d60008560008061179c565b6001600360008373ffffffffffffffffffffffffffffffffffffffff1673ffffffffffffffffffffffffffffffffffffffff168152602001908152602001600020600082825403925050819055505b600073ffffffffffffffffffffffffffffffffffffffff168573ffffffffffffffffffffffffffffffffffffffff1614611adf576001600360008773ffffffffffffffffffffffffffffffffffffffff1673ffffffffffffffffffffffffffffffffffffffff168152602001908152602001600020600082825401925050819055505b846002600086815260200190815260200160002060006101000a81548173ffffffffffffffffffffffffffffffffffffffff021916908373ffffffffffffffffffffffffffffffffffffffff160217905550838573ffffffffffffffffffffffffffffffffffffffff168273ffffffffffffffffffffffffffffffffffffffff167fddf252ad1be2c89b69c2b068fc378daa952ba7f163c4a11628f55a4df523b3ef60405160405180910390a4809150509392505050565b600080600090507a184f03e93ff9f4daa797ed6e38ed64bf6a1f0100000000000000008310611bf5577a184f03e93ff9f4daa797ed6e38ed64bf6a1f0100000000000000008381611beb57611bea612a81565b5b0492506040810190505b6d04ee2d6d415b85acef81000000008310611c32576d04ee2d6d415b85acef81000000008381611c2857611c27612a81565b5b0492506020810190505b662386f26fc100008310611c6157662386f26fc100008381611c5757611c56612a81565b5b0492506010810190505b6305f5e1008310611c8a576305f5e1008381611c8057611c7f612a81565b5b0492506008810190505b6127108310611caf576127108381611ca557611ca4612a81565b5b0492506004810190505b60648310611cd25760648381611cc857611cc7612a81565b5b0492506002810190505b600a8310611ce1576001810190505b80915050919050565b60007f01ffc9a7000000000000000000000000000000000000000000000000000000007bffffffffffffffffffffffffffffffffffffffffffffffffffffffff1916827bffffffffffffffffffffffffffffffffffffffffffffffffffffffff1916149050919050565b600073ffffffffffffffffffffffffffffffffffffffff168273ffffffffffffffffffffffffffffffffffffffff1603611dc65760006040517f64a0ae92000000000000000000000000000000000000000000000000000000008152600401611dbd9190612226565b60405180910390fd5b6000611dd48383600061100f565b9050600073ffffffffffffffffffffffffffffffffffffffff168173ffffffffffffffffffffffffffffffffffffffff1614611e485760006040517f73c6ac6e000000000000000000000000000000000000000000000000000000008152600401611e3f9190612226565b60405180910390fd5b505050565b611e58838383611f11565b611f0c57600073ffffffffffffffffffffffffffffffffffffffff168373ffffffffffffffffffffffffffffffffffffffff1603611ecd57806040517f7e273289000000000000000000000000000000000000000000000000000000008152600401611ec491906122bc565b60405180910390fd5b81816040517f177e802f000000000000000000000000000000000000000000000000000000008152600401611f03929190612992565b60405180910390fd5b505050565b60008073ffffffffffffffffffffffffffffffffffffffff168373ffffffffffffffffffffffffffffffffffffffff1614158015611fc957508273ffffffffffffffffffffffffffffffffffffffff168473ffffffffffffffffffffffffffffffffffffffff161480611f8a5750611f898484610d7e565b5b80611fc857508273ffffffffffffffffffffffffffffffffffffffff16611fb083610f9a565b73ffffffffffffffffffffffffffffffffffffffff16145b5b90509392505050565b6040518060a0016040528060008152602001600081526020016000815260200160008152602001600081525090565b6000604051905090565b600080fd5b600080fd5b60007fffffffff0000000000000000000000000000000000000000000000000000000082169050919050565b61204a81612015565b811461205557600080fd5b50565b60008135905061206781612041565b92915050565b6000602082840312156120835761208261200b565b5b600061209184828501612058565b91505092915050565b60008115159050919050565b6120af8161209a565b82525050565b60006020820190506120ca60008301846120a6565b92915050565b600081519050919050565b600082825260208201905092915050565b60005b8381101561210a5780820151818401526020810190506120ef565b60008484015250505050565b6000601f19601f8301169050919050565b6000612132826120d0565b61213c81856120db565b935061214c8185602086016120ec565b61215581612116565b840191505092915050565b6000602082019050818103600083015261217a8184612127565b905092915050565b6000819050919050565b61219581612182565b81146121a057600080fd5b50565b6000813590506121b28161218c565b92915050565b6000602082840312156121ce576121cd61200b565b5b60006121dc848285016121a3565b91505092915050565b600073ffffffffffffffffffffffffffffffffffffffff82169050919050565b6000612210826121e5565b9050919050565b61222081612205565b82525050565b600060208201905061223b6000830184612217565b92915050565b61224a81612205565b811461225557600080fd5b50565b60008135905061226781612241565b92915050565b600080604083850312156122845761228361200b565b5b600061229285828601612258565b92505060206122a3858286016121a3565b9150509250929050565b6122b681612182565b82525050565b60006020820190506122d160008301846122ad565b92915050565b600080fd5b7f4e487b7100000000000000000000000000000000000000000000000000000000600052604160045260246000fd5b61231482612116565b810181811067ffffffffffffffff82111715612333576123326122dc565b5b80604052505050565b6000612346612001565b9050612352828261230b565b919050565b600067ffffffffffffffff821115612372576123716122dc565b5b602082029050602081019050919050565b600080fd5b600061239b61239684612357565b61233c565b905080838252602082019050602084028301858111156123be576123bd612383565b5b835b818110156123e757806123d388826121a3565b8452602084019350506020810190506123c0565b5050509392505050565b600082601f830112612406576124056122d7565b5b8135612416848260208601612388565b91505092915050565b600080fd5b600060a0828403121561243a5761243961241f565b5b61244460a061233c565b90506000612454848285016121a3565b6000830152506020612468848285016121a3565b602083015250604061247c848285016121a3565b6040830152506060612490848285016121a3565b60608301525060806124a4848285016121a3565b60808301525092915050565b600080600060e084860312156124c9576124c861200b565b5b60006124d786828701612258565b935050602084013567ffffffffffffffff8111156124f8576124f7612010565b5b612504868287016123f1565b925050604061251586828701612424565b9150509250925092565b6000806000606084860312156125385761253761200b565b5b600061254686828701612258565b935050602061255786828701612258565b9250506040612568868287016121a3565b9150509250925092565b600080604083850312156125895761258861200b565b5b6000612597858286016121a3565b92505060206125a8858286016121a3565b9150509250929050565b6000602082840312156125c8576125c761200b565b5b60006125d684828501612258565b91505092915050565b6125e88161209a565b81146125f357600080fd5b50565b600081359050612605816125df565b92915050565b600080604083850312156126225761262161200b565b5b600061263085828601612258565b9250506020612641858286016125f6565b9150509250929050565b600080fd5b600067ffffffffffffffff82111561266b5761266a6122dc565b5b61267482612116565b9050602081019050919050565b82818337600083830152505050565b60006126a361269e84612650565b61233c565b9050828152602081018484840111156126bf576126be61264b565b5b6126ca848285612681565b509392505050565b600082601f8301126126e7576126e66122d7565b5b81356126f7848260208601612690565b91505092915050565b6000806000806080858703121561271a5761271961200b565b5b600061272887828801612258565b945050602061273987828801612258565b935050604061274a878288016121a3565b925050606085013567ffffffffffffffff81111561276b5761276a612010565b5b612777878288016126d2565b91505092959194509250565b61278c81612182565b82525050565b60a0820160008201516127a86000850182612783565b5060208201516127bb6020850182612783565b5060408201516127ce6040850182612783565b5060608201516127e16060850182612783565b5060808201516127f46080850182612783565b50505050565b600060a08201905061280f6000830184612792565b92915050565b6000806040838503121561282c5761282b61200b565b5b600061283a85828601612258565b925050602061284b85828601612258565b9150509250929050565b7f4e487b7100000000000000000000000000000000000000000000000000000000600052602260045260246000fd5b6000600282049050600182168061289c57607f821691505b6020821081036128af576128ae612855565b5b50919050565b7f4e487b7100000000000000000000000000000000000000000000000000000000600052603260045260246000fd5b7f4e487b7100000000000000000000000000000000000000000000000000000000600052601160045260246000fd5b600061291e82612182565b91507fffffffffffffffffffffffffffffffffffffffffffffffffffffffffffffffff82036129505761294f6128e4565b5b600182019050919050565b60006060820190506129706000830186612217565b61297d60208301856122ad565b61298a6040830184612217565b949350505050565b60006040820190506129a76000830185612217565b6129b460208301846122ad565b9392505050565b7f4c42543a206275726e2064617465206973206e6f74207965742072656163686560008201527f6400000000000000000000000000000000000000000000000000000000000000602082015250565b6000612a176021836120db565b9150612a22826129bb565b604082019050919050565b60006020820190508181036000830152612a4681612a0a565b9050919050565b6000612a5882612182565b9150612a6383612182565b9250828203905081811115612a7b57612a7a6128e4565b5b92915050565b7f4e487b7100000000000000000000000000000000000000000000000000000000600052601260045260246000fd5b6000612abb82612182565b9150612ac683612182565b925082612ad657612ad5612a81565b5b828204905092915050565b60008160011c9050919050565b6000808291508390505b6001851115612b3857808604811115612b1457612b136128e4565b5b6001851615612b235780820291505b8081029050612b3185612ae1565b9450612af8565b94509492505050565b600082612b515760019050612c0d565b81612b5f5760009050612c0d565b8160018114612b755760028114612b7f57612bae565b6001915050612c0d565b60ff841115612b9157612b906128e4565b5b8360020a915084821115612ba857612ba76128e4565b5b50612c0d565b5060208310610133831016604e8410600b8410161715612be35782820a905083811115612bde57612bdd6128e4565b5b612c0d565b612bf08484846001612aee565b92509050818404811115612c0757612c066128e4565b5b81810290505b9392505050565b600060ff82169050919050565b6000612c2c82612182565b9150612c3783612c14565b9250612c647fffffffffffffffffffffffffffffffffffffffffffffffffffffffffffffffff8484612b41565b905092915050565b6000612c7782612182565b9150612c8283612182565b9250828202612c9081612182565b91508282048414831517612ca757612ca66128e4565b5b5092915050565b6000612cb982612182565b9150612cc483612182565b9250612cf17fffffffffffffffffffffffffffffffffffffffffffffffffffffffffffffffff8484612b41565b905092915050565b6000612d0482612182565b9150612d0f83612182565b9250828201905080821115612d2757612d266128e4565b5b92915050565b600081905092915050565b6000612d43826120d0565b612d4d8185612d2d565b9350612d5d8185602086016120ec565b80840191505092915050565b6000612d758285612d38565b9150612d818284612d38565b91508190509392505050565b7f4c42543a20746f6b656e20646f6573206e6f7420657869737400000000000000600082015250565b6000612dc36019836120db565b9150612dce82612d8d565b602082019050919050565b60006020820190508181036000830152612df281612db6565b9050919050565b600081519050919050565b600082825260208201905092915050565b6000612e2082612df9565b612e2a8185612e04565b9350612e3a8185602086016120ec565b612e4381612116565b840191505092915050565b6000608082019050612e636000830187612217565b612e706020830186612217565b612e7d60408301856122ad565b8181036060830152612e8f8184612e15565b905095945050505050565b600081519050612ea981612041565b92915050565b600060208284031215612ec557612ec461200b565b5b6000612ed384828501612e9a565b9150509291505056fea26469706673582212206718f98e1c3c0615169c43b951bcb0d6f83363390db5994237ac8a3afdc6b0be64736f6c63430008140033",
  "linkReferences": {},
  "deployedLinkReferences": {}
}